:100000000C947A000C948C000C948C000C948C0052
:100010000C948C000C948C000C948C000C948C0030
:100020000C948C000C948C000C948C000C948C0020
:100030000C948C000C948C000C948C000C948C0010
:100040000C948C000C948C000C948C000C948C0000
:100050000C948C000C948C000C948C000C948C00F0
:100060000C948C000C948C000C948C000C948C00E0
:100070000C948C000C948C000C948C000C948C00D0
:100080000C948C000C948C000C948C000C948C00C0
:100090000C948C000C948C000C948C000C948C00B0
:1000A0000C948C000C948C000C948C000C948C00A0
:1000B0000C948C000C948C000C948C000C948C0090
:1000C0000C948C000C948C000C948C000C948C0080
:1000D0000C948C000C9400010C9425010C948C0061
:1000E0000C948C000C948C000C948C000C948C0060
:1000F0000C948C0011241FBECFEFCDBFDFE7DEBF15
:1001000020E4A0E0B0E401C01D92A532B207E1F7FF
:100110000E9475010C94A4030C940000CF93DF930C
:10012000C62FD42F21E020932004BC0180E090E072
:100130000E94A90220E030E040E851E40E94370329
:100140009B01AC0160E074E284E79DE40E94080238
:1001500020E030E040E05FE30E949C010E947A02D0
:10016000E0E6F8E06087718780EC86831092244097
:10017000C63071F018F4C53031F01CC0C73071F0D2
:10018000C83091F017C0809124408093244016C05D
:100190008091244081608093244010C0809124404D
:1001A0008260809324400AC08091244083608093C1
:1001B000244004C0809124408093244080912440B6
:1001C00080932440D53449F0DF3469F0D43489F485
:1001D000809124408093244010C08091244080620C
:1001E000809324400AC080912440806380932440FF
:1001F00004C08091244080932440DF91CF910895E2
:100200001F920F920FB60F9211240BB60F928F937D
:100210009F93EF93FF93F89490916008809113401F
:100220008F5F8F70E82FF0E0EC5EFF4B9083809340
:1002300013407894FF91EF919F918F910F900BBE97
:100240000F900FBE0F901F9018951F920F920FB630
:100250000F9211240BB60F928F93EF93FF93F894A4
:1002600080910140E09100408E1759F0EF5FEF70F0
:10027000E0930040F0E0EE5FFF4B808180936208E6
:1002800005C0E0E6F8E085818F7D85837894FF9155
:10029000EF918F910F900BBE0F900FBE0F901F909C
:1002A000189580911340E09112408E17D1F3EF5FC3
:1002B000EF70E0931240F0E0EC5EFF4B8081089518
:1002C000209101402F5F2F70909100402917E1F39A
:1002D000E22FF0E0EE5FFF4B808320930140E0E6E9
:1002E000F8E0858180628583089510921240109213
:1002F00013401092004010920140E0E2F4E080814F
:100300008B7F808388E0828B44E468E080E895E21C
:100310000E948E00E0E6F8E085818068858378940D
:100320000E9451010E9460013299FACF0E9451014E
:100330000E946001F5CF5058BB27AA270E94B30145
:100340000C94FD020E94EF0238F00E94F60220F0A9
:1003500039F49F3F19F426F40C94EC020EF4E09566
:10036000E7FB0C94E602E92F0E940E0358F3BA173C
:10037000620773078407950720F079F4A6F50C94BB
:1003800030030EF4E0950B2EBA2FA02D0B01B9010E
:1003900090010C01CA01A0011124FF27591B99F0FB
:1003A000593F50F4503E68F11A16F040A22F232F07
:1003B000342F4427585FF3CF469537952795A79557
:1003C000F0405395C9F77EF41F16BA0B620B730BFE
:1003D000840BBAF09150A1F0FF0FBB1F661F771F6F
:1003E000881FC2F70EC0BA0F621F731F841F48F424
:1003F000879577956795B795F7959E3F08F0B0CFAD
:100400009395880F08F09927EE0F97958795089593
:100410000E941C020C94FD020E94F60258F00E94F9
:10042000EF0240F029F45F3F29F00C94E6025111ED
:100430000C9431030C94EC020E940E0368F3992390
:10044000B1F3552391F3951B550BBB27AA276217D0
:100450007307840738F09F5F5F4F220F331F441FDD
:10046000AA1FA9F335D00E2E3AF0E0E832D0915011
:100470005040E695001CCAF72BD0FE2F29D0660FFE
:10048000771F881FBB1F261737074807AB07B0E841
:1004900009F0BB0B802DBF01FF2793585F4F3AF047
:1004A0009E3F510578F00C94E6020C9431035F3FB7
:1004B000E4F3983ED4F3869577956795B795F795CD
:1004C0009F5FC9F7880F911D9695879597F90895B5
:1004D000E1E0660F771F881FBB1F62177307840751
:1004E000BA0720F0621B730B840BBA0BEE1F88F760
:1004F000E09508950E94160388F09F5798F0B92F51
:100500009927B751B0F0E1F0660F771F881F991F48
:100510001AF0BA95C9F714C0B13091F00E943003B7
:10052000B1E008950C943003672F782F8827B85FC7
:1005300039F0B93FCCF3869577956795B395D9F7A0
:100540003EF490958095709561957F4F8F4F9F4FAA
:100550000895E89409C097FB3EF4909580957095B6
:1005600061957F4F8F4F9F4F9923A9F0F92F96E9FF
:10057000BB279395F695879577956795B795F11174
:10058000F8CFFAF4BB0F11F460FF1BC06F5F7F4F11
:100590008F4F9F4F16C0882311F096E911C0772323
:1005A00021F09EE8872F762F05C0662371F096E82C
:1005B000862F70E060E02AF09A95660F771F881FFB
:1005C000DAF7880F9695879597F9089597F99F67B9
:1005D00080E870E060E008959FEF80EC08950024CB
:1005E0000A941616170618060906089500240A9498
:1005F00012161306140605060895092E0394000C1E
:1006000011F4882352F0BB0F40F4BF2B11F460FFAC
:1006100004C06F5F7F4F8F4F9F4F089557FD9058D5
:10062000440F551F59F05F3F71F04795880F97FBB6
:10063000991F61F09F3F79F0879508951216130670
:100640001406551FF2CF4695F1DF08C0161617069F
:100650001806991FF1CF86957105610508940895D4
:10066000E894BB2766277727CB0197F908950E9466
:100670004A030C94FD020E94EF0238F00E94F60239
:1006800020F0952311F00C94E6020C94EC02112456
:100690000C9431030E940E0370F3959FC1F3950FE4
:1006A00050E0551F629FF001729FBB27F00DB11DF6
:1006B000639FAA27F00DB11DAA1F649F6627B00D86
:1006C000A11D661F829F2227B00DA11D621F739F6F
:1006D000B00DA11D621F839FA00D611D221F749F7D
:1006E0003327A00D611D231F849F600D211D822FC4
:1006F000762F6A2F11249F5750409AF0F1F08823EB
:100700004AF0EE0FFF1FBB1F661F771F881F915017
:100710005040A9F79E3F510580F00C94E6020C94DE
:1007200031035F3FE4F3983ED4F386957795679560
:10073000B795F795E7959F5FC1F7FE2B880F911D41
:0C0740009695879597F90895F894FFCFDF
:00000001FF
